{
  "_format": "hh-sol-artifact-1",
  "contractName": "FundAllocator",
  "sourceName": "contracts/FundAllocator.sol",
  "abi": [
    {
      "anonymous": false,
      "inputs": [
        {
          "indexed": true,
          "internalType": "address",
          "name": "investor",
          "type": "address"
        },
        {
          "indexed": true,
          "internalType": "address",
          "name": "creator",
          "type": "address"
        },
        {
          "indexed": false,
          "internalType": "uint256",
          "name": "amount",
          "type": "uint256"
        }
      ],
      "name": "Funded",
      "type": "event"
    },
    {
      "inputs": [
        {
          "internalType": "address payable",
          "name": "_creator",
          "type": "address"
        }
      ],
      "name": "fundCreator",
      "outputs": [],
      "stateMutability": "payable",
      "type": "function"
    }
  ],
  "bytecode": "0x608060405234801561001057600080fd5b506103a9806100206000396000f3fe60806040526004361061001e5760003560e01c80631685bf4914610023575b600080fd5b61003d60048036038101906100389190610203565b61003f565b005b60003411610082576040517f08c379a0000000000000000000000000000000000000000000000000000000008152600401610079906102b3565b60405180910390fd5b600073ffffffffffffffffffffffffffffffffffffffff168173ffffffffffffffffffffffffffffffffffffffff16036100f1576040517f08c379a00000000000000000000000000000000000000000000000000000000081526004016100e89061031f565b60405180910390fd5b8073ffffffffffffffffffffffffffffffffffffffff166108fc349081150290604051600060405180830381858888f19350505050158015610137573d6000803e3d6000fd5b508073ffffffffffffffffffffffffffffffffffffffff163373ffffffffffffffffffffffffffffffffffffffff167f3b5083eec1a1116c56de5d6841cff8efc6a0aec9850e836ec509d6ce024ea561346040516101959190610358565b60405180910390a350565b600080fd5b600073ffffffffffffffffffffffffffffffffffffffff82169050919050565b60006101d0826101a5565b9050919050565b6101e0816101c5565b81146101eb57600080fd5b50565b6000813590506101fd816101d7565b92915050565b600060208284031215610219576102186101a0565b5b6000610227848285016101ee565b91505092915050565b600082825260208201905092915050565b7f46756e64696e6720616d6f756e74206d7573742062652067726561746572207460008201527f68616e207a65726f000000000000000000000000000000000000000000000000602082015250565b600061029d602883610230565b91506102a882610241565b604082019050919050565b600060208201905081810360008301526102cc81610290565b9050919050565b7f496e76616c69642063726561746f722061646472657373000000000000000000600082015250565b6000610309601783610230565b9150610314826102d3565b602082019050919050565b60006020820190508181036000830152610338816102fc565b9050919050565b6000819050919050565b6103528161033f565b82525050565b600060208201905061036d6000830184610349565b9291505056fea264697066735822122054b79447ad4886830d3e5d772264735e2f6ebc90224b818ec6831a9ab202870a64736f6c63430008180033",
  "linkReferences": {},
  "deployedLinkReferences": {}
}